{
  "contractName": "Verifier",
  "abi": [
    {
      "anonymous": false,
      "inputs": [
        {
          "indexed": false,
          "name": "s",
          "type": "string"
        }
      ],
      "name": "Verified",
      "type": "event",
      "signature": "0x3f3cfdb26fb5f9f1786ab4f1a1f9cd4c0b5e726cbdfc26e495261731aad44e39"
    },
    {
      "constant": false,
      "inputs": [
        {
          "name": "a",
          "type": "uint256[2]"
        },
        {
          "name": "a_p",
          "type": "uint256[2]"
        },
        {
          "name": "b",
          "type": "uint256[2][2]"
        },
        {
          "name": "b_p",
          "type": "uint256[2]"
        },
        {
          "name": "c",
          "type": "uint256[2]"
        },
        {
          "name": "c_p",
          "type": "uint256[2]"
        },
        {
          "name": "h",
          "type": "uint256[2]"
        },
        {
          "name": "k",
          "type": "uint256[2]"
        },
        {
          "name": "input",
          "type": "uint256[2]"
        }
      ],
      "name": "verifyTx",
      "outputs": [
        {
          "name": "r",
          "type": "bool"
        }
      ],
      "payable": false,
      "stateMutability": "nonpayable",
      "type": "function",
      "signature": "0xfe01ff62"
    }
  ],
  "bytecode": "0x608060405234801561001057600080fd5b5061192c806100206000396000f3fe608060405234801561001057600080fd5b5060043610610048576000357c010000000000000000000000000000000000000000000000000000000090048063fe01ff621461004d575b600080fd5b6102f1600480360361028081101561006457600080fd5b8101908080604001906002806020026040519081016040528092919082600260200280828437600081840152601f19601f820116905080830192505050505050919291929080604001906002806020026040519081016040528092919082600260200280828437600081840152601f19601f82011690508083019250505050505091929192908060800190600280602002604051908101604052809291906000905b8282101561015a578382604002016002806020026040519081016040528092919082600260200280828437600081840152601f19601f82011690508083019250505050505081526020019060010190610106565b50505050919291929080604001906002806020026040519081016040528092919082600260200280828437600081840152601f19601f820116905080830192505050505050919291929080604001906002806020026040519081016040528092919082600260200280828437600081840152601f19601f820116905080830192505050505050919291929080604001906002806020026040519081016040528092919082600260200280828437600081840152601f19601f820116905080830192505050505050919291929080604001906002806020026040519081016040528092919082600260200280828437600081840152601f19601f820116905080830192505050505050919291929080604001906002806020026040519081016040528092919082600260200280828437600081840152601f19601f820116905080830192505050505050919291929080604001906002806020026040519081016040528092919082600260200280828437600081840152601f19601f820116905080830192505050505050919291929050505061030b565b604051808215151515815260200191505060405180910390f35b60006103156116eb565b60408051908101604052808c600060028110151561032f57fe5b602002015181526020018c600160028110151561034857fe5b6020020151815250816000018190525060408051908101604052808b600060028110151561037257fe5b602002015181526020018b600160028110151561038b57fe5b60200201518152508160200181905250604080519081016040528060408051908101604052808c60006002811015156103c057fe5b602002015160006002811015156103d357fe5b602002015181526020018c60006002811015156103ec57fe5b602002015160016002811015156103ff57fe5b6020020151815250815260200160408051908101604052808c600160028110151561042657fe5b6020020151600060028110151561043957fe5b602002015181526020018c600160028110151561045257fe5b6020020151600160028110151561046557fe5b60200201518152508152508160400181905250604080519081016040528089600060028110151561049257fe5b602002015181526020018960016002811015156104ab57fe5b6020020151815250816060018190525060408051908101604052808860006002811015156104d557fe5b602002015181526020018860016002811015156104ee57fe5b60200201518152508160800181905250604080519081016040528087600060028110151561051857fe5b6020020151815260200187600160028110151561053157fe5b60200201518152508160a00181905250604080519081016040528086600060028110151561055b57fe5b6020020151815260200186600160028110151561057457fe5b60200201518152508160e00181905250604080519081016040528085600060028110151561059e57fe5b602002015181526020018560016002811015156105b757fe5b60200201518152508160c00181905250606060026040519080825280602002602001820160405280156105f95781602001602082028038833980820191505090505b50905060008090505b600281101561064757848160028110151561061957fe5b6020020151828281518110151561062c57fe5b90602001906020020181815250508080600101915050610602565b50600061065482846106c4565b14156106b0577f3f3cfdb26fb5f9f1786ab4f1a1f9cd4c0b5e726cbdfc26e495261731aad44e396040518080602001828103825260228152602001806118df6022913960400191505060405180910390a16001925050506106b7565b6000925050505b9998505050505050505050565b60006106ce611761565b6106d6610904565b90508060e001515160018551011415156106ef57600080fd5b6106f76117d1565b6040805190810160405280600081526020016000815250905060008090505b855181101561077657610767826107628560e001516001850181518110151561073b57fe5b90602001906020020151898581518110151561075357fe5b90602001906020020151610f45565b610fe1565b91508080600101915050610716565b5061079d818360e00151600081518110151561078e57fe5b90602001906020020151610fe1565b90506107c6846000015183600001516107b9876020015161109e565b6107c161113a565b611204565b15156107d7576001925050506108fe565b6107fe826020015185604001516107f1876060015161109e565b6107f961113a565b611204565b151561080f576002925050506108fe565b610836846080015183604001516108298760a0015161109e565b61083161113a565b611204565b1515610847576003925050506108fe565b6108938460c0015183606001516108776108728561086d8a600001518b60800151610fe1565b610fe1565b61109e565b8560a00151610889876080015161109e565b8960400151611310565b15156108a4576004925050506108fe565b6108e66108b5828660000151610fe1565b85604001516108c78760e0015161109e565b8560c001516108d9896080015161109e565b6108e161113a565b611310565b15156108f7576005925050506108fe565b6000925050505b92915050565b61090c611761565b604080519081016040528060408051908101604052807f1304aad3d8233381c7c1d8ceae7db343c3c1ca78081463814bb87a304e2fbe1f81526020017f2793a9b18b2171846132cb88cce840048c27cf4a04bd7a821f96dd66ae6cc4e4815250815260200160408051908101604052807f08365e2684f5c1e071a6207df6db6a2c90dbb425290c24c6affb0fc5a05db9a681526020017f25bf6b4423446986dfd8dd9f25c32af17ecbd37edaf6c7dc3ba36cbbdf39e3d7815250815250816000018190525060408051908101604052807f0c4a89561e79cba37ae121ac80fffb944c9d9165ec0fb1294764fb91ea2e7abf81526020017f2f359d314a9914e370150041e27134cc57f8edf5ffa7683ce6c00755254f84eb8152508160200181905250604080519081016040528060408051908101604052807f245306d164a31500f3eae2a0b573ba50fea1c527613b85a9b22ae3c95ef9284481526020017f09d4fc2b1d1a13c37c29f768c575ef73929481b73cdbe346d4154e03c62eee95815250815260200160408051908101604052807f05794efeac32b55d9e99cafdf629dbf0664d6c724c2e96f2525fa53973a6c15f81526020017f17ef0ae9321136cdf1269e9a0f17bc779914743d25816dc2bc70327e370412898152508152508160400181905250604080519081016040528060408051908101604052807f0ca5158be6d5dba5d997175cb684d119a6710368de21780f2775d452dfd5494281526020017f1312e891399e407d8efd9a9bc6a095b28e724c87a85df88bb0de02342ed40e73815250815260200160408051908101604052807f2dee4f8a59712db316ff9aa336a5b65de131fb007043ddf92c07da4920aa2a8881526020017f11753e5614ee46c2af0cdfd055805507b497c1b262a804133fe5dca744aea56f815250815250816060018190525060408051908101604052807f207a4d3d6321f1addf7ee15526bb55164fa443eb260f9a7cb9d936ef2aaf935881526020017f1c869c3b330cd51090fcfcd3a211cc2035c26998cf4fe08c62e1748c77528de88152508160800181905250604080519081016040528060408051908101604052807f2b059224b67f2841df49dfbe94fc62dbe14ffb41f4a1ffb3c7f7ea19e84938da81526020017f2285f5af37962751ce36dd2c05e9e987741ebcb5a6b380c7dbbbe6d309713ff2815250815260200160408051908101604052807f116fe9d5f14990f6e897efebc1af965ac607c728354be254cffef6bb00b0036781526020017f0998bda37b8debd0fadacb0a048e010a3639c40467b29c0548f2c54dd7e1caad8152508152508160a00181905250604080519081016040528060408051908101604052807f163dfb039e311daa4e5f80fe9640f312b733dbe3c43560ae41bdee4e982f015181526020017f26ca2c8103caa21e4b923c9de1a94ba72cf58fd7ad3243a3c23f944ed987fde2815250815260200160408051908101604052807f120d3544a66693fd17cd73ed6556b995373bfd213dd16593024802b17eb9825a81526020017f18dc1aebc0febe313d99030ad9d5a2e52be03de706489363ddd5b88b4f4c0ec68152508152508160c001819052506003604051908082528060200260200182016040528015610dda57816020015b610dc76117eb565b815260200190600190039081610dbf5790505b508160e0018190525060408051908101604052807f27c1df4903a66037205556283cf464c8076869ad7504d74f35cede9ce7496a9381526020017f29466f2e9f230fc141932a99f6febed25187dbf8d6ed800071bfcdbbd9d4398b8152508160e001516000815181101515610e4b57fe5b9060200190602002018190525060408051908101604052807f28bc661adfb3d673f953c546caae1283ccb86ea4401f8587ea03eaf3eadb336b81526020017f2449af25a1af4ade5edbed566b75ac428f34eccc333d87fbbc7cd3d287efcb608152508160e001516001815181101515610ec057fe5b9060200190602002018190525060408051908101604052807f07b5e200d8005dd02275edcf9f5c540e30bfa72ff9015e57ec678f1031a0afbf81526020017f03c0257536974abd95bd4665bd980fe8469ccd1d0342c2e7bbf4d5ae5178f9458152508160e001516002815181101515610f3557fe5b9060200190602002018190525090565b610f4d6117d1565b610f55611805565b8360000151816000600381101515610f6957fe5b6020020181815250508360200151816001600381101515610f8657fe5b60200201818152505082816002600381101515610f9f57fe5b6020020181815250506000606083608084600060076107d05a03f190508060008114610fca57610fcc565bfe5b50801515610fd957600080fd5b505092915050565b610fe96117d1565b610ff1611828565b836000015181600060048110151561100557fe5b602002018181525050836020015181600160048110151561102257fe5b602002018181525050826000015181600260048110151561103f57fe5b602002018181525050826020015181600360048110151561105c57fe5b602002018181525050600060608360c084600060066107d05a03f19050806000811461108757611089565bfe5b5080151561109657600080fd5b505092915050565b6110a66117d1565b60007f30644e72e131a029b85045b68181585d97816a916871ca8d3c208c16d87cfd479050600083600001511480156110e3575060008360200151145b15611107576040805190810160405280600081526020016000815250915050611135565b60408051908101604052808460000151815260200182856020015181151561112b57fe5b0683038152509150505b919050565b61114261184b565b604080519081016040528060408051908101604052807f198e9393920d483a7260bfb731fb5d25f1aa493335a9e71297e485b7aef312c281526020017f1800deef121f1e76426a00665e5c4479674322d4f75edadd46debd5cd992f6ed815250815260200160408051908101604052807f090689d0585ff075ec9e99ad690c3395bc4b313370b38ef355acdadcd122975b81526020017f12c85ea5db8c6deb4aab71808dcb408fe3d1e7690c43d37b4ce6cc0166fa7daa815250815250905090565b60006060600260405190808252806020026020018201604052801561124357816020015b6112306117eb565b8152602001906001900390816112285790505b5090506060600260405190808252806020026020018201604052801561128357816020015b611270611872565b8152602001906001900390816112685790505b5090508682600081518110151561129657fe5b90602001906020020181905250848260018151811015156112b357fe5b90602001906020020181905250858160008151811015156112d057fe5b90602001906020020181905250838160018151811015156112ed57fe5b906020019060200201819052506113048282611458565b92505050949350505050565b60006060600360405190808252806020026020018201604052801561134f57816020015b61133c6117eb565b8152602001906001900390816113345790505b5090506060600360405190808252806020026020018201604052801561138f57816020015b61137c611872565b8152602001906001900390816113745790505b509050888260008151811015156113a257fe5b90602001906020020181905250868260018151811015156113bf57fe5b90602001906020020181905250848260028151811015156113dc57fe5b90602001906020020181905250878160008151811015156113f957fe5b906020019060200201819052508581600181518110151561141657fe5b906020019060200201819052508381600281518110151561143357fe5b9060200190602002018190525061144a8282611458565b925050509695505050505050565b60008151835114151561146a57600080fd5b60008351905060006006820290506060816040519080825280602002602001820160405280156114a95781602001602082028038833980820191505090505b50905060008090505b838110156116875786818151811015156114c857fe5b906020019060200201516000015182600060068402018151811015156114ea57fe5b9060200190602002018181525050868181518110151561150657fe5b9060200190602002015160200151826001600684020181518110151561152857fe5b9060200190602002018181525050858181518110151561154457fe5b9060200190602002015160000151600060028110151561156057fe5b6020020151826002600684020181518110151561157957fe5b9060200190602002018181525050858181518110151561159557fe5b906020019060200201516000015160016002811015156115b157fe5b602002015182600360068402018151811015156115ca57fe5b906020019060200201818152505085818151811015156115e657fe5b9060200190602002015160200151600060028110151561160257fe5b6020020151826004600684020181518110151561161b57fe5b9060200190602002018181525050858181518110151561163757fe5b9060200190602002015160200151600160028110151561165357fe5b6020020151826005600684020181518110151561166c57fe5b906020019060200201818152505080806001019150506114b2565b50611690611899565b60006020826020860260208601600060086107d05a03f1905080600081146116b7576116b9565bfe5b508015156116c657600080fd5b60008260006001811015156116d757fe5b602002015114159550505050505092915050565b610240604051908101604052806117006117eb565b815260200161170d6117eb565b815260200161171a611872565b81526020016117276117eb565b81526020016117346117eb565b81526020016117416117eb565b815260200161174e6117eb565b815260200161175b6117eb565b81525090565b61032060405190810160405280611776611872565b81526020016117836117eb565b8152602001611790611872565b815260200161179d611872565b81526020016117aa6117eb565b81526020016117b7611872565b81526020016117c4611872565b8152602001606081525090565b604080519081016040528060008152602001600081525090565b604080519081016040528060008152602001600081525090565b606060405190810160405280600390602082028038833980820191505090505090565b608060405190810160405280600490602082028038833980820191505090505090565b60806040519081016040528061185f6118bc565b815260200161186c6118bc565b81525090565b6080604051908101604052806118866118bc565b81526020016118936118bc565b81525090565b602060405190810160405280600190602082028038833980820191505090505090565b604080519081016040528060029060208202803883398082019150509050509056fe5472616e73616374696f6e207375636365737366756c6c792076657269666965642ea165627a7a723058206c0dfa1b859f8416750d8e65be64d4b76dbdc828adb45ff336a538e645fd5b010029",
  "source": "pragma solidity ^0.5.2;\n// This file is LGPL3 Licensed\n\n/**\n * @title Elliptic curve operations on twist points for alt_bn128\n * @author Mustafa Al-Bassam (mus@musalbas.com)\n */\nlibrary BN256G2 {\n    uint256 internal constant FIELD_MODULUS = 0x30644e72e131a029b85045b68181585d97816a916871ca8d3c208c16d87cfd47;\n    uint256 internal constant TWISTBX = 0x2b149d40ceb8aaae81be18991be06ac3b5b4c5e559dbefa33267e6dc24a138e5;\n    uint256 internal constant TWISTBY = 0x9713b03af0fed4cd2cafadeed8fdf4a74fa084e52d1852e4a2bd0685c315d2;\n    uint internal constant PTXX = 0;\n    uint internal constant PTXY = 1;\n    uint internal constant PTYX = 2;\n    uint internal constant PTYY = 3;\n    uint internal constant PTZX = 4;\n    uint internal constant PTZY = 5;\n\n    /**\n     * @notice Add two twist points\n     * @param pt1xx Coefficient 1 of x on point 1\n     * @param pt1xy Coefficient 2 of x on point 1\n     * @param pt1yx Coefficient 1 of y on point 1\n     * @param pt1yy Coefficient 2 of y on point 1\n     * @param pt2xx Coefficient 1 of x on point 2\n     * @param pt2xy Coefficient 2 of x on point 2\n     * @param pt2yx Coefficient 1 of y on point 2\n     * @param pt2yy Coefficient 2 of y on point 2\n     * @return (pt3xx, pt3xy, pt3yx, pt3yy)\n     */\n    function ECTwistAdd(\n        uint256 pt1xx, uint256 pt1xy,\n        uint256 pt1yx, uint256 pt1yy,\n        uint256 pt2xx, uint256 pt2xy,\n        uint256 pt2yx, uint256 pt2yy\n    ) public pure returns (\n        uint256, uint256,\n        uint256, uint256\n    ) {\n        if (\n            pt1xx == 0 && pt1xy == 0 &&\n            pt1yx == 0 && pt1yy == 0\n        ) {\n            if (!(\n                pt2xx == 0 && pt2xy == 0 &&\n                pt2yx == 0 && pt2yy == 0\n            )) {\n                assert(_isOnCurve(\n                    pt2xx, pt2xy,\n                    pt2yx, pt2yy\n                ));\n            }\n            return (\n                pt2xx, pt2xy,\n                pt2yx, pt2yy\n            );\n        } else if (\n            pt2xx == 0 && pt2xy == 0 &&\n            pt2yx == 0 && pt2yy == 0\n        ) {\n            assert(_isOnCurve(\n                pt1xx, pt1xy,\n                pt1yx, pt1yy\n            ));\n            return (\n                pt1xx, pt1xy,\n                pt1yx, pt1yy\n            );\n        }\n\n        assert(_isOnCurve(\n            pt1xx, pt1xy,\n            pt1yx, pt1yy\n        ));\n        assert(_isOnCurve(\n            pt2xx, pt2xy,\n            pt2yx, pt2yy\n        ));\n\n        uint256[6] memory pt3 = _ECTwistAddJacobian(\n            pt1xx, pt1xy,\n            pt1yx, pt1yy,\n            1,     0,\n            pt2xx, pt2xy,\n            pt2yx, pt2yy,\n            1,     0\n        );\n\n        return _fromJacobian(\n            pt3[PTXX], pt3[PTXY],\n            pt3[PTYX], pt3[PTYY],\n            pt3[PTZX], pt3[PTZY]\n        );\n    }\n\n    /**\n     * @notice Multiply a twist point by a scalar\n     * @param s     Scalar to multiply by\n     * @param pt1xx Coefficient 1 of x\n     * @param pt1xy Coefficient 2 of x\n     * @param pt1yx Coefficient 1 of y\n     * @param pt1yy Coefficient 2 of y\n     * @return (pt2xx, pt2xy, pt2yx, pt2yy)\n     */\n    function ECTwistMul(\n        uint256 s,\n        uint256 pt1xx, uint256 pt1xy,\n        uint256 pt1yx, uint256 pt1yy\n    ) public pure returns (\n        uint256, uint256,\n        uint256, uint256\n    ) {\n        uint256 pt1zx = 1;\n        if (\n            pt1xx == 0 && pt1xy == 0 &&\n            pt1yx == 0 && pt1yy == 0\n        ) {\n            pt1xx = 1;\n            pt1yx = 1;\n            pt1zx = 0;\n        } else {\n            assert(_isOnCurve(\n                pt1xx, pt1xy,\n                pt1yx, pt1yy\n            ));\n        }\n\n        uint256[6] memory pt2 = _ECTwistMulJacobian(\n            s,\n            pt1xx, pt1xy,\n            pt1yx, pt1yy,\n            pt1zx, 0\n        );\n\n        return _fromJacobian(\n            pt2[PTXX], pt2[PTXY],\n            pt2[PTYX], pt2[PTYY],\n            pt2[PTZX], pt2[PTZY]\n        );\n    }\n\n    /**\n     * @notice Get the field modulus\n     * @return The field modulus\n     */\n    function GetFieldModulus() public pure returns (uint256) {\n        return FIELD_MODULUS;\n    }\n\n    function submod(uint256 a, uint256 b, uint256 n) internal pure returns (uint256) {\n        return addmod(a, n - b, n);\n    }\n\n    function _FQ2Mul(\n        uint256 xx, uint256 xy,\n        uint256 yx, uint256 yy\n    ) internal pure returns(uint256, uint256) {\n        return (\n            submod(mulmod(xx, yx, FIELD_MODULUS), mulmod(xy, yy, FIELD_MODULUS), FIELD_MODULUS),\n            addmod(mulmod(xx, yy, FIELD_MODULUS), mulmod(xy, yx, FIELD_MODULUS), FIELD_MODULUS)\n        );\n    }\n\n    function _FQ2Muc(\n        uint256 xx, uint256 xy,\n        uint256 c\n    ) internal pure returns(uint256, uint256) {\n        return (\n            mulmod(xx, c, FIELD_MODULUS),\n            mulmod(xy, c, FIELD_MODULUS)\n        );\n    }\n\n    function _FQ2Add(\n        uint256 xx, uint256 xy,\n        uint256 yx, uint256 yy\n    ) internal pure returns(uint256, uint256) {\n        return (\n            addmod(xx, yx, FIELD_MODULUS),\n            addmod(xy, yy, FIELD_MODULUS)\n        );\n    }\n\n    function _FQ2Sub(\n        uint256 xx, uint256 xy,\n        uint256 yx, uint256 yy\n    ) internal pure returns(uint256 rx, uint256 ry) {\n        return (\n            submod(xx, yx, FIELD_MODULUS),\n            submod(xy, yy, FIELD_MODULUS)\n        );\n    }\n\n    function _FQ2Div(\n        uint256 xx, uint256 xy,\n        uint256 yx, uint256 yy\n    ) internal pure returns(uint256, uint256) {\n        (yx, yy) = _FQ2Inv(yx, yy);\n        return _FQ2Mul(xx, xy, yx, yy);\n    }\n\n    function _FQ2Inv(uint256 x, uint256 y) internal pure returns(uint256, uint256) {\n        uint256 inv = _modInv(addmod(mulmod(y, y, FIELD_MODULUS), mulmod(x, x, FIELD_MODULUS), FIELD_MODULUS), FIELD_MODULUS);\n        return (\n            mulmod(x, inv, FIELD_MODULUS),\n            FIELD_MODULUS - mulmod(y, inv, FIELD_MODULUS)\n        );\n    }\n\n    function _isOnCurve(\n        uint256 xx, uint256 xy,\n        uint256 yx, uint256 yy\n    ) internal pure returns (bool) {\n        uint256 yyx;\n        uint256 yyy;\n        uint256 xxxx;\n        uint256 xxxy;\n        (yyx, yyy) = _FQ2Mul(yx, yy, yx, yy);\n        (xxxx, xxxy) = _FQ2Mul(xx, xy, xx, xy);\n        (xxxx, xxxy) = _FQ2Mul(xxxx, xxxy, xx, xy);\n        (yyx, yyy) = _FQ2Sub(yyx, yyy, xxxx, xxxy);\n        (yyx, yyy) = _FQ2Sub(yyx, yyy, TWISTBX, TWISTBY);\n        return yyx == 0 && yyy == 0;\n    }\n\n    function _modInv(uint256 a, uint256 n) internal pure returns(uint256 t) {\n        t = 0;\n        uint256 newT = 1;\n        uint256 r = n;\n        uint256 newR = a;\n        uint256 q;\n        while (newR != 0) {\n            q = r / newR;\n            (t, newT) = (newT, submod(t, mulmod(q, newT, n), n));\n            (r, newR) = (newR, r - q * newR);\n        }\n    }\n\n    function _fromJacobian(\n        uint256 pt1xx, uint256 pt1xy,\n        uint256 pt1yx, uint256 pt1yy,\n        uint256 pt1zx, uint256 pt1zy\n    ) internal pure returns (\n        uint256 pt2xx, uint256 pt2xy,\n        uint256 pt2yx, uint256 pt2yy\n    ) {\n        uint256 invzx;\n        uint256 invzy;\n        (invzx, invzy) = _FQ2Inv(pt1zx, pt1zy);\n        (pt2xx, pt2xy) = _FQ2Mul(pt1xx, pt1xy, invzx, invzy);\n        (pt2yx, pt2yy) = _FQ2Mul(pt1yx, pt1yy, invzx, invzy);\n    }\n\n    function _ECTwistAddJacobian(\n        uint256 pt1xx, uint256 pt1xy,\n        uint256 pt1yx, uint256 pt1yy,\n        uint256 pt1zx, uint256 pt1zy,\n        uint256 pt2xx, uint256 pt2xy,\n        uint256 pt2yx, uint256 pt2yy,\n        uint256 pt2zx, uint256 pt2zy) internal pure returns (uint256[6] memory pt3) {\n            if (pt1zx == 0 && pt1zy == 0) {\n                (\n                    pt3[PTXX], pt3[PTXY],\n                    pt3[PTYX], pt3[PTYY],\n                    pt3[PTZX], pt3[PTZY]\n                ) = (\n                    pt2xx, pt2xy,\n                    pt2yx, pt2yy,\n                    pt2zx, pt2zy\n                );\n                return pt3;\n            } else if (pt2zx == 0 && pt2zy == 0) {\n                (\n                    pt3[PTXX], pt3[PTXY],\n                    pt3[PTYX], pt3[PTYY],\n                    pt3[PTZX], pt3[PTZY]\n                ) = (\n                    pt1xx, pt1xy,\n                    pt1yx, pt1yy,\n                    pt1zx, pt1zy\n                );\n                return pt3;\n            }\n\n            (pt2yx,     pt2yy)     = _FQ2Mul(pt2yx, pt2yy, pt1zx, pt1zy); // U1 = y2 * z1\n            (pt3[PTYX], pt3[PTYY]) = _FQ2Mul(pt1yx, pt1yy, pt2zx, pt2zy); // U2 = y1 * z2\n            (pt2xx,     pt2xy)     = _FQ2Mul(pt2xx, pt2xy, pt1zx, pt1zy); // V1 = x2 * z1\n            (pt3[PTZX], pt3[PTZY]) = _FQ2Mul(pt1xx, pt1xy, pt2zx, pt2zy); // V2 = x1 * z2\n\n            if (pt2xx == pt3[PTZX] && pt2xy == pt3[PTZY]) {\n                if (pt2yx == pt3[PTYX] && pt2yy == pt3[PTYY]) {\n                    (\n                        pt3[PTXX], pt3[PTXY],\n                        pt3[PTYX], pt3[PTYY],\n                        pt3[PTZX], pt3[PTZY]\n                    ) = _ECTwistDoubleJacobian(pt1xx, pt1xy, pt1yx, pt1yy, pt1zx, pt1zy);\n                    return pt3;\n                }\n                (\n                    pt3[PTXX], pt3[PTXY],\n                    pt3[PTYX], pt3[PTYY],\n                    pt3[PTZX], pt3[PTZY]\n                ) = (\n                    1, 0,\n                    1, 0,\n                    0, 0\n                );\n                return pt3;\n            }\n\n            (pt2zx,     pt2zy)     = _FQ2Mul(pt1zx, pt1zy, pt2zx,     pt2zy);     // W = z1 * z2\n            (pt1xx,     pt1xy)     = _FQ2Sub(pt2yx, pt2yy, pt3[PTYX], pt3[PTYY]); // U = U1 - U2\n            (pt1yx,     pt1yy)     = _FQ2Sub(pt2xx, pt2xy, pt3[PTZX], pt3[PTZY]); // V = V1 - V2\n            (pt1zx,     pt1zy)     = _FQ2Mul(pt1yx, pt1yy, pt1yx,     pt1yy);     // V_squared = V * V\n            (pt2yx,     pt2yy)     = _FQ2Mul(pt1zx, pt1zy, pt3[PTZX], pt3[PTZY]); // V_squared_times_V2 = V_squared * V2\n            (pt1zx,     pt1zy)     = _FQ2Mul(pt1zx, pt1zy, pt1yx,     pt1yy);     // V_cubed = V * V_squared\n            (pt3[PTZX], pt3[PTZY]) = _FQ2Mul(pt1zx, pt1zy, pt2zx,     pt2zy);     // newz = V_cubed * W\n            (pt2xx,     pt2xy)     = _FQ2Mul(pt1xx, pt1xy, pt1xx,     pt1xy);     // U * U\n            (pt2xx,     pt2xy)     = _FQ2Mul(pt2xx, pt2xy, pt2zx,     pt2zy);     // U * U * W\n            (pt2xx,     pt2xy)     = _FQ2Sub(pt2xx, pt2xy, pt1zx,     pt1zy);     // U * U * W - V_cubed\n            (pt2zx,     pt2zy)     = _FQ2Muc(pt2yx, pt2yy, 2);                    // 2 * V_squared_times_V2\n            (pt2xx,     pt2xy)     = _FQ2Sub(pt2xx, pt2xy, pt2zx,     pt2zy);     // A = U * U * W - V_cubed - 2 * V_squared_times_V2\n            (pt3[PTXX], pt3[PTXY]) = _FQ2Mul(pt1yx, pt1yy, pt2xx,     pt2xy);     // newx = V * A\n            (pt1yx,     pt1yy)     = _FQ2Sub(pt2yx, pt2yy, pt2xx,     pt2xy);     // V_squared_times_V2 - A\n            (pt1yx,     pt1yy)     = _FQ2Mul(pt1xx, pt1xy, pt1yx,     pt1yy);     // U * (V_squared_times_V2 - A)\n            (pt1xx,     pt1xy)     = _FQ2Mul(pt1zx, pt1zy, pt3[PTYX], pt3[PTYY]); // V_cubed * U2\n            (pt3[PTYX], pt3[PTYY]) = _FQ2Sub(pt1yx, pt1yy, pt1xx,     pt1xy);     // newy = U * (V_squared_times_V2 - A) - V_cubed * U2\n    }\n\n    function _ECTwistDoubleJacobian(\n        uint256 pt1xx, uint256 pt1xy,\n        uint256 pt1yx, uint256 pt1yy,\n        uint256 pt1zx, uint256 pt1zy\n    ) internal pure returns(\n        uint256 pt2xx, uint256 pt2xy,\n        uint256 pt2yx, uint256 pt2yy,\n        uint256 pt2zx, uint256 pt2zy\n    ) {\n        (pt2xx, pt2xy) = _FQ2Muc(pt1xx, pt1xy, 3);            // 3 * x\n        (pt2xx, pt2xy) = _FQ2Mul(pt2xx, pt2xy, pt1xx, pt1xy); // W = 3 * x * x\n        (pt1zx, pt1zy) = _FQ2Mul(pt1yx, pt1yy, pt1zx, pt1zy); // S = y * z\n        (pt2yx, pt2yy) = _FQ2Mul(pt1xx, pt1xy, pt1yx, pt1yy); // x * y\n        (pt2yx, pt2yy) = _FQ2Mul(pt2yx, pt2yy, pt1zx, pt1zy); // B = x * y * S\n        (pt1xx, pt1xy) = _FQ2Mul(pt2xx, pt2xy, pt2xx, pt2xy); // W * W\n        (pt2zx, pt2zy) = _FQ2Muc(pt2yx, pt2yy, 8);            // 8 * B\n        (pt1xx, pt1xy) = _FQ2Sub(pt1xx, pt1xy, pt2zx, pt2zy); // H = W * W - 8 * B\n        (pt2zx, pt2zy) = _FQ2Mul(pt1zx, pt1zy, pt1zx, pt1zy); // S_squared = S * S\n        (pt2yx, pt2yy) = _FQ2Muc(pt2yx, pt2yy, 4);            // 4 * B\n        (pt2yx, pt2yy) = _FQ2Sub(pt2yx, pt2yy, pt1xx, pt1xy); // 4 * B - H\n        (pt2yx, pt2yy) = _FQ2Mul(pt2yx, pt2yy, pt2xx, pt2xy); // W * (4 * B - H)\n        (pt2xx, pt2xy) = _FQ2Muc(pt1yx, pt1yy, 8);            // 8 * y\n        (pt2xx, pt2xy) = _FQ2Mul(pt2xx, pt2xy, pt1yx, pt1yy); // 8 * y * y\n        (pt2xx, pt2xy) = _FQ2Mul(pt2xx, pt2xy, pt2zx, pt2zy); // 8 * y * y * S_squared\n        (pt2yx, pt2yy) = _FQ2Sub(pt2yx, pt2yy, pt2xx, pt2xy); // newy = W * (4 * B - H) - 8 * y * y * S_squared\n        (pt2xx, pt2xy) = _FQ2Muc(pt1xx, pt1xy, 2);            // 2 * H\n        (pt2xx, pt2xy) = _FQ2Mul(pt2xx, pt2xy, pt1zx, pt1zy); // newx = 2 * H * S\n        (pt2zx, pt2zy) = _FQ2Mul(pt1zx, pt1zy, pt2zx, pt2zy); // S * S_squared\n        (pt2zx, pt2zy) = _FQ2Muc(pt2zx, pt2zy, 8);            // newz = 8 * S * S_squared\n    }\n\n    function _ECTwistMulJacobian(\n        uint256 d,\n        uint256 pt1xx, uint256 pt1xy,\n        uint256 pt1yx, uint256 pt1yy,\n        uint256 pt1zx, uint256 pt1zy\n    ) internal pure returns(uint256[6] memory pt2) {\n        while (d != 0) {\n            if ((d & 1) != 0) {\n                pt2 = _ECTwistAddJacobian(\n                    pt2[PTXX], pt2[PTXY],\n                    pt2[PTYX], pt2[PTYY],\n                    pt2[PTZX], pt2[PTZY],\n                    pt1xx, pt1xy,\n                    pt1yx, pt1yy,\n                    pt1zx, pt1zy);\n            }\n            (\n                pt1xx, pt1xy,\n                pt1yx, pt1yy,\n                pt1zx, pt1zy\n            ) = _ECTwistDoubleJacobian(\n                pt1xx, pt1xy,\n                pt1yx, pt1yy,\n                pt1zx, pt1zy\n            );\n\n            d = d / 2;\n        }\n    }\n}\n\n\n// This file is MIT Licensed.\n//\n// Copyright 2017 Christian Reitwiessner\n// Permission is hereby granted, free of charge, to any person obtaining a copy of this software and associated documentation files (the \"Software\"), to deal in the Software without restriction, including without limitation the rights to use, copy, modify, merge, publish, distribute, sublicense, and/or sell copies of the Software, and to permit persons to whom the Software is furnished to do so, subject to the following conditions:\n// The above copyright notice and this permission notice shall be included in all copies or substantial portions of the Software.\n// THE SOFTWARE IS PROVIDED \"AS IS\", WITHOUT WARRANTY OF ANY KIND, EXPRESS OR IMPLIED, INCLUDING BUT NOT LIMITED TO THE WARRANTIES OF MERCHANTABILITY, FITNESS FOR A PARTICULAR PURPOSE AND NONINFRINGEMENT. IN NO EVENT SHALL THE AUTHORS OR COPYRIGHT HOLDERS BE LIABLE FOR ANY CLAIM, DAMAGES OR OTHER LIABILITY, WHETHER IN AN ACTION OF CONTRACT, TORT OR OTHERWISE, ARISING FROM, OUT OF OR IN CONNECTION WITH THE SOFTWARE OR THE USE OR OTHER DEALINGS IN THE SOFTWARE.\n\n\nlibrary Pairing {\n    struct G1Point {\n        uint X;\n        uint Y;\n    }\n    // Encoding of field elements is: X[0] * z + X[1]\n    struct G2Point {\n        uint[2] X;\n        uint[2] Y;\n    }\n    /// @return the generator of G1\n    function P1() pure internal returns (G1Point memory) {\n        return G1Point(1, 2);\n    }\n    /// @return the generator of G2\n    function P2() pure internal returns (G2Point memory) {\n        return G2Point(\n            [11559732032986387107991004021392285783925812861821192530917403151452391805634,\n             10857046999023057135944570762232829481370756359578518086990519993285655852781],\n            [4082367875863433681332203403145435568316851327593401208105741076214120093531,\n             8495653923123431417604973247489272438418190587263600148770280649306958101930]\n        );\n    }\n    /// @return the negation of p, i.e. p.addition(p.negate()) should be zero.\n    function negate(G1Point memory p) pure internal returns (G1Point memory) {\n        // The prime q in the base field F_q for G1\n        uint q = 21888242871839275222246405745257275088696311157297823662689037894645226208583;\n        if (p.X == 0 && p.Y == 0)\n            return G1Point(0, 0);\n        return G1Point(p.X, q - (p.Y % q));\n    }\n    /// @return the sum of two points of G1\n    function addition(G1Point memory p1, G1Point memory p2) internal returns (G1Point memory r) {\n        uint[4] memory input;\n        input[0] = p1.X;\n        input[1] = p1.Y;\n        input[2] = p2.X;\n        input[3] = p2.Y;\n        bool success;\n        assembly {\n            success := call(sub(gas, 2000), 6, 0, input, 0xc0, r, 0x60)\n            // Use \"invalid\" to make gas estimation work\n            switch success case 0 { invalid() }\n        }\n        require(success);\n    }\n    /// @return the sum of two points of G2\n    function addition(G2Point memory p1, G2Point memory p2) internal pure returns (G2Point memory r) {\n        (r.X[1], r.X[0], r.Y[1], r.Y[0]) = BN256G2.ECTwistAdd(p1.X[1],p1.X[0],p1.Y[1],p1.Y[0],p2.X[1],p2.X[0],p2.Y[1],p2.Y[0]);\n    }\n    /// @return the product of a point on G1 and a scalar, i.e.\n    /// p == p.scalar_mul(1) and p.addition(p) == p.scalar_mul(2) for all points p.\n    function scalar_mul(G1Point memory p, uint s) internal returns (G1Point memory r) {\n        uint[3] memory input;\n        input[0] = p.X;\n        input[1] = p.Y;\n        input[2] = s;\n        bool success;\n        assembly {\n            success := call(sub(gas, 2000), 7, 0, input, 0x80, r, 0x60)\n            // Use \"invalid\" to make gas estimation work\n            switch success case 0 { invalid() }\n        }\n        require (success);\n    }\n    /// @return the result of computing the pairing check\n    /// e(p1[0], p2[0]) *  .... * e(p1[n], p2[n]) == 1\n    /// For example pairing([P1(), P1().negate()], [P2(), P2()]) should\n    /// return true.\n    function pairing(G1Point[] memory p1, G2Point[] memory p2) internal returns (bool) {\n        require(p1.length == p2.length);\n        uint elements = p1.length;\n        uint inputSize = elements * 6;\n        uint[] memory input = new uint[](inputSize);\n        for (uint i = 0; i < elements; i++)\n        {\n            input[i * 6 + 0] = p1[i].X;\n            input[i * 6 + 1] = p1[i].Y;\n            input[i * 6 + 2] = p2[i].X[0];\n            input[i * 6 + 3] = p2[i].X[1];\n            input[i * 6 + 4] = p2[i].Y[0];\n            input[i * 6 + 5] = p2[i].Y[1];\n        }\n        uint[1] memory out;\n        bool success;\n        assembly {\n            success := call(sub(gas, 2000), 8, 0, add(input, 0x20), mul(inputSize, 0x20), out, 0x20)\n            // Use \"invalid\" to make gas estimation work\n            switch success case 0 { invalid() }\n        }\n        require(success);\n        return out[0] != 0;\n    }\n    /// Convenience method for a pairing check for two pairs.\n    function pairingProd2(G1Point memory a1, G2Point memory a2, G1Point memory b1, G2Point memory b2) internal returns (bool) {\n        G1Point[] memory p1 = new G1Point[](2);\n        G2Point[] memory p2 = new G2Point[](2);\n        p1[0] = a1;\n        p1[1] = b1;\n        p2[0] = a2;\n        p2[1] = b2;\n        return pairing(p1, p2);\n    }\n    /// Convenience method for a pairing check for three pairs.\n    function pairingProd3(\n            G1Point memory a1, G2Point memory a2,\n            G1Point memory b1, G2Point memory b2,\n            G1Point memory c1, G2Point memory c2\n    ) internal returns (bool) {\n        G1Point[] memory p1 = new G1Point[](3);\n        G2Point[] memory p2 = new G2Point[](3);\n        p1[0] = a1;\n        p1[1] = b1;\n        p1[2] = c1;\n        p2[0] = a2;\n        p2[1] = b2;\n        p2[2] = c2;\n        return pairing(p1, p2);\n    }\n    /// Convenience method for a pairing check for four pairs.\n    function pairingProd4(\n            G1Point memory a1, G2Point memory a2,\n            G1Point memory b1, G2Point memory b2,\n            G1Point memory c1, G2Point memory c2,\n            G1Point memory d1, G2Point memory d2\n    ) internal returns (bool) {\n        G1Point[] memory p1 = new G1Point[](4);\n        G2Point[] memory p2 = new G2Point[](4);\n        p1[0] = a1;\n        p1[1] = b1;\n        p1[2] = c1;\n        p1[3] = d1;\n        p2[0] = a2;\n        p2[1] = b2;\n        p2[2] = c2;\n        p2[3] = d2;\n        return pairing(p1, p2);\n    }\n}\ncontract Verifier {\n    using Pairing for *;\n    struct VerifyingKey {\n        Pairing.G2Point A;\n        Pairing.G1Point B;\n        Pairing.G2Point C;\n        Pairing.G2Point gamma;\n        Pairing.G1Point gammaBeta1;\n        Pairing.G2Point gammaBeta2;\n        Pairing.G2Point Z;\n        Pairing.G1Point[] IC;\n    }\n    struct Proof {\n        Pairing.G1Point A;\n        Pairing.G1Point A_p;\n        Pairing.G2Point B;\n        Pairing.G1Point B_p;\n        Pairing.G1Point C;\n        Pairing.G1Point C_p;\n        Pairing.G1Point K;\n        Pairing.G1Point H;\n    }\n    function verifyingKey() pure internal returns (VerifyingKey memory vk) {\n        vk.A = Pairing.G2Point([uint256(0x1304aad3d8233381c7c1d8ceae7db343c3c1ca78081463814bb87a304e2fbe1f), uint256(0x2793a9b18b2171846132cb88cce840048c27cf4a04bd7a821f96dd66ae6cc4e4)], [uint256(0x08365e2684f5c1e071a6207df6db6a2c90dbb425290c24c6affb0fc5a05db9a6), uint256(0x25bf6b4423446986dfd8dd9f25c32af17ecbd37edaf6c7dc3ba36cbbdf39e3d7)]);\n        vk.B = Pairing.G1Point(uint256(0x0c4a89561e79cba37ae121ac80fffb944c9d9165ec0fb1294764fb91ea2e7abf), uint256(0x2f359d314a9914e370150041e27134cc57f8edf5ffa7683ce6c00755254f84eb));\n        vk.C = Pairing.G2Point([uint256(0x245306d164a31500f3eae2a0b573ba50fea1c527613b85a9b22ae3c95ef92844), uint256(0x09d4fc2b1d1a13c37c29f768c575ef73929481b73cdbe346d4154e03c62eee95)], [uint256(0x05794efeac32b55d9e99cafdf629dbf0664d6c724c2e96f2525fa53973a6c15f), uint256(0x17ef0ae9321136cdf1269e9a0f17bc779914743d25816dc2bc70327e37041289)]);\n        vk.gamma = Pairing.G2Point([uint256(0x0ca5158be6d5dba5d997175cb684d119a6710368de21780f2775d452dfd54942), uint256(0x1312e891399e407d8efd9a9bc6a095b28e724c87a85df88bb0de02342ed40e73)], [uint256(0x2dee4f8a59712db316ff9aa336a5b65de131fb007043ddf92c07da4920aa2a88), uint256(0x11753e5614ee46c2af0cdfd055805507b497c1b262a804133fe5dca744aea56f)]);\n        vk.gammaBeta1 = Pairing.G1Point(uint256(0x207a4d3d6321f1addf7ee15526bb55164fa443eb260f9a7cb9d936ef2aaf9358), uint256(0x1c869c3b330cd51090fcfcd3a211cc2035c26998cf4fe08c62e1748c77528de8));\n        vk.gammaBeta2 = Pairing.G2Point([uint256(0x2b059224b67f2841df49dfbe94fc62dbe14ffb41f4a1ffb3c7f7ea19e84938da), uint256(0x2285f5af37962751ce36dd2c05e9e987741ebcb5a6b380c7dbbbe6d309713ff2)], [uint256(0x116fe9d5f14990f6e897efebc1af965ac607c728354be254cffef6bb00b00367), uint256(0x0998bda37b8debd0fadacb0a048e010a3639c40467b29c0548f2c54dd7e1caad)]);\n        vk.Z = Pairing.G2Point([uint256(0x163dfb039e311daa4e5f80fe9640f312b733dbe3c43560ae41bdee4e982f0151), uint256(0x26ca2c8103caa21e4b923c9de1a94ba72cf58fd7ad3243a3c23f944ed987fde2)], [uint256(0x120d3544a66693fd17cd73ed6556b995373bfd213dd16593024802b17eb9825a), uint256(0x18dc1aebc0febe313d99030ad9d5a2e52be03de706489363ddd5b88b4f4c0ec6)]);\n        vk.IC = new Pairing.G1Point[](3);\n        vk.IC[0] = Pairing.G1Point(uint256(0x27c1df4903a66037205556283cf464c8076869ad7504d74f35cede9ce7496a93), uint256(0x29466f2e9f230fc141932a99f6febed25187dbf8d6ed800071bfcdbbd9d4398b));\n        vk.IC[1] = Pairing.G1Point(uint256(0x28bc661adfb3d673f953c546caae1283ccb86ea4401f8587ea03eaf3eadb336b), uint256(0x2449af25a1af4ade5edbed566b75ac428f34eccc333d87fbbc7cd3d287efcb60));\n        vk.IC[2] = Pairing.G1Point(uint256(0x07b5e200d8005dd02275edcf9f5c540e30bfa72ff9015e57ec678f1031a0afbf), uint256(0x03c0257536974abd95bd4665bd980fe8469ccd1d0342c2e7bbf4d5ae5178f945));\n    }\n    function verify(uint[] memory input, Proof memory proof) internal returns (uint) {\n        VerifyingKey memory vk = verifyingKey();\n        require(input.length + 1 == vk.IC.length);\n        // Compute the linear combination vk_x\n        Pairing.G1Point memory vk_x = Pairing.G1Point(0, 0);\n        for (uint i = 0; i < input.length; i++)\n            vk_x = Pairing.addition(vk_x, Pairing.scalar_mul(vk.IC[i + 1], input[i]));\n        vk_x = Pairing.addition(vk_x, vk.IC[0]);\n        if (!Pairing.pairingProd2(proof.A, vk.A, Pairing.negate(proof.A_p), Pairing.P2())) return 1;\n        if (!Pairing.pairingProd2(vk.B, proof.B, Pairing.negate(proof.B_p), Pairing.P2())) return 2;\n        if (!Pairing.pairingProd2(proof.C, vk.C, Pairing.negate(proof.C_p), Pairing.P2())) return 3;\n        if (!Pairing.pairingProd3(\n            proof.K, vk.gamma,\n            Pairing.negate(Pairing.addition(vk_x, Pairing.addition(proof.A, proof.C))), vk.gammaBeta2,\n            Pairing.negate(vk.gammaBeta1), proof.B\n        )) return 4;\n        if (!Pairing.pairingProd3(\n                Pairing.addition(vk_x, proof.A), proof.B,\n                Pairing.negate(proof.H), vk.Z,\n                Pairing.negate(proof.C), Pairing.P2()\n        )) return 5;\n        return 0;\n    }\n    event Verified(string s);\n    function verifyTx(\n            uint[2] memory a,\n            uint[2] memory a_p,\n            uint[2][2] memory b,\n            uint[2] memory b_p,\n            uint[2] memory c,\n            uint[2] memory c_p,\n            uint[2] memory h,\n            uint[2] memory k,\n            uint[2] memory input\n        ) public returns (bool r) {\n        Proof memory proof;\n        proof.A = Pairing.G1Point(a[0], a[1]);\n        proof.A_p = Pairing.G1Point(a_p[0], a_p[1]);\n        proof.B = Pairing.G2Point([b[0][0], b[0][1]], [b[1][0], b[1][1]]);\n        proof.B_p = Pairing.G1Point(b_p[0], b_p[1]);\n        proof.C = Pairing.G1Point(c[0], c[1]);\n        proof.C_p = Pairing.G1Point(c_p[0], c_p[1]);\n        proof.H = Pairing.G1Point(h[0], h[1]);\n        proof.K = Pairing.G1Point(k[0], k[1]);\n        uint[] memory inputValues = new uint[](input.length);\n        for(uint i = 0; i < input.length; i++){\n            inputValues[i] = input[i];\n        }\n        if (verify(inputValues, proof) == 0) {\n            emit Verified(\"Transaction successfully verified.\");\n            return true;\n        } else {\n            return false;\n        }\n    }\n}\n",
  "sourcePath": "C:\\Users\\Hadeel\\Desktop\\Hadeel-Blockchain-Capstone\\eth-contracts\\contracts\\Verifier.sol",
  "compiler": {
    "name": "solc",
    "version": "0.5.2+commit.1df8f40c.Emscripten.clang"
  },
  "schemaVersion": "3.0.8",
  "updatedAt": "2019-05-01T00:55:18.026Z",
  "devdoc": {
    "methods": {}
  },
  "userdoc": {
    "methods": {}
  }
}